{
  "contractName": "game",
  "abi": [
    {
      "inputs": [
        {
          "internalType": "address",
          "name": "_userContractAdress",
          "type": "address"
        }
      ],
      "stateMutability": "nonpayable",
      "type": "constructor"
    },
    {
      "inputs": [
        {
          "internalType": "string",
          "name": "username",
          "type": "string"
        }
      ],
      "name": "startGame",
      "outputs": [],
      "stateMutability": "nonpayable",
      "type": "function"
    }
  ],
  "bytecode": "0x608060405234801561001057600080fd5b50604051610557380380610557833981810160405281019061003291906100dc565b80600160006101000a81548173ffffffffffffffffffffffffffffffffffffffff021916908373ffffffffffffffffffffffffffffffffffffffff16021790555050610109565b600080fd5b600073ffffffffffffffffffffffffffffffffffffffff82169050919050565b60006100a98261007e565b9050919050565b6100b98161009e565b81146100c457600080fd5b50565b6000815190506100d6816100b0565b92915050565b6000602082840312156100f2576100f1610079565b5b6000610100848285016100c7565b91505092915050565b61043f806101186000396000f3fe608060405234801561001057600080fd5b506004361061002b5760003560e01c8063d542c4d514610030575b600080fd5b61004a6004803603810190610045919061024f565b61004c565b005b600160009054906101000a900473ffffffffffffffffffffffffffffffffffffffff1673ffffffffffffffffffffffffffffffffffffffff1663b64fe1c633836040518363ffffffff1660e01b81526004016100a9929190610358565b600060405180830381600087803b1580156100c357600080fd5b505af11580156100d7573d6000803e3d6000fd5b505050506000808154809291906100ed906103c1565b919050555050565b6000604051905090565b600080fd5b600080fd5b600080fd5b600080fd5b6000601f19601f8301169050919050565b7f4e487b7100000000000000000000000000000000000000000000000000000000600052604160045260246000fd5b61015c82610113565b810181811067ffffffffffffffff8211171561017b5761017a610124565b5b80604052505050565b600061018e6100f5565b905061019a8282610153565b919050565b600067ffffffffffffffff8211156101ba576101b9610124565b5b6101c382610113565b9050602081019050919050565b82818337600083830152505050565b60006101f26101ed8461019f565b610184565b90508281526020810184848401111561020e5761020d61010e565b5b6102198482856101d0565b509392505050565b600082601f83011261023657610235610109565b5b81356102468482602086016101df565b91505092915050565b600060208284031215610265576102646100ff565b5b600082013567ffffffffffffffff81111561028357610282610104565b5b61028f84828501610221565b91505092915050565b600073ffffffffffffffffffffffffffffffffffffffff82169050919050565b60006102c382610298565b9050919050565b6102d3816102b8565b82525050565b600081519050919050565b600082825260208201905092915050565b60005b838110156103135780820151818401526020810190506102f8565b60008484015250505050565b600061032a826102d9565b61033481856102e4565b93506103448185602086016102f5565b61034d81610113565b840191505092915050565b600060408201905061036d60008301856102ca565b818103602083015261037f818461031f565b90509392505050565b7f4e487b7100000000000000000000000000000000000000000000000000000000600052601160045260246000fd5b6000819050919050565b60006103cc826103b7565b91507fffffffffffffffffffffffffffffffffffffffffffffffffffffffffffffffff82036103fe576103fd610388565b5b60018201905091905056fea2646970667358221220135c8c864929aacc3ee7a409cf87f562e846170c8bb9a709eebe3308a8a7351d64736f6c63430008130033",
  "immutableReferences": {},
  "source": "\r\n// SPDX-License-Identifier: MIT\r\npragma solidity ^0.8.19;\r\n\r\n\r\ninterface IUser {\r\n    function createPlayer(address addr , string memory username) external; \r\n}\r\n\r\ncontract game {\r\n    uint gameCount;\r\n    IUser userContract;\r\n\r\n    constructor(address _userContractAdress) {\r\n        userContract = IUser(_userContractAdress);\r\n    }\r\n\r\n    function startGame(string memory username) public {\r\n        userContract.createPlayer(msg.sender,username);\r\n        gameCount++;\r\n    }\r\n\r\n}",
  "sourcePath": "C:\\Users\\Feras\\Desktop\\web3-demo-dapp\\contracts\\game.sol",
  "compiler": {
    "name": "solc",
    "version": "0.8.19+commit.7dd6d404.Emscripten.clang"
  },
  "schemaVersion": "3.4.16",
  "updatedAt": "2024-08-04T11:13:55.406Z",
  "devdoc": {
    "kind": "dev",
    "methods": {},
    "version": 1
  },
  "userdoc": {
    "kind": "user",
    "methods": {},
    "version": 1
  }
}