{
  "contractName": "User",
  "abi": [
    {
      "inputs": [
        {
          "internalType": "address",
          "name": "",
          "type": "address"
        }
      ],
      "name": "players",
      "outputs": [
        {
          "internalType": "address",
          "name": "plAddr",
          "type": "address"
        },
        {
          "internalType": "string",
          "name": "username",
          "type": "string"
        },
        {
          "internalType": "uint256",
          "name": "score",
          "type": "uint256"
        }
      ],
      "stateMutability": "view",
      "type": "function",
      "constant": true
    },
    {
      "inputs": [
        {
          "internalType": "address",
          "name": "addr",
          "type": "address"
        },
        {
          "internalType": "string",
          "name": "username",
          "type": "string"
        }
      ],
      "name": "createPlayer",
      "outputs": [],
      "stateMutability": "nonpayable",
      "type": "function"
    }
  ],
  "bytecode": "0x608060405234801561001057600080fd5b506109b5806100206000396000f3fe608060405234801561001057600080fd5b50600436106100365760003560e01c8063b64fe1c61461003b578063e2eb41ff14610057575b600080fd5b610055600480360381019061005091906104c7565b610089565b005b610071600480360381019061006c9190610523565b61023d565b604051610080939291906105f7565b60405180910390f35b600073ffffffffffffffffffffffffffffffffffffffff166000808473ffffffffffffffffffffffffffffffffffffffff1673ffffffffffffffffffffffffffffffffffffffff16815260200190815260200160002060000160009054906101000a900473ffffffffffffffffffffffffffffffffffffffff1673ffffffffffffffffffffffffffffffffffffffff1614610159576040517f08c379a000000000000000000000000000000000000000000000000000000000815260040161015090610681565b60405180910390fd5b600060405180606001604052808473ffffffffffffffffffffffffffffffffffffffff16815260200183815260200160008152509050806000808573ffffffffffffffffffffffffffffffffffffffff1673ffffffffffffffffffffffffffffffffffffffff16815260200190815260200160002060008201518160000160006101000a81548173ffffffffffffffffffffffffffffffffffffffff021916908373ffffffffffffffffffffffffffffffffffffffff160217905550602082015181600101908161022a91906108ad565b5060408201518160020155905050505050565b60006020528060005260406000206000915090508060000160009054906101000a900473ffffffffffffffffffffffffffffffffffffffff1690806001018054610286906106d0565b80601f01602080910402602001604051908101604052809291908181526020018280546102b2906106d0565b80156102ff5780601f106102d4576101008083540402835291602001916102ff565b820191906000526020600020905b8154815290600101906020018083116102e257829003601f168201915b5050505050908060020154905083565b6000604051905090565b600080fd5b600080fd5b600073ffffffffffffffffffffffffffffffffffffffff82169050919050565b600061034e82610323565b9050919050565b61035e81610343565b811461036957600080fd5b50565b60008135905061037b81610355565b92915050565b600080fd5b600080fd5b6000601f19601f8301169050919050565b7f4e487b7100000000000000000000000000000000000000000000000000000000600052604160045260246000fd5b6103d48261038b565b810181811067ffffffffffffffff821117156103f3576103f261039c565b5b80604052505050565b600061040661030f565b905061041282826103cb565b919050565b600067ffffffffffffffff8211156104325761043161039c565b5b61043b8261038b565b9050602081019050919050565b82818337600083830152505050565b600061046a61046584610417565b6103fc565b90508281526020810184848401111561048657610485610386565b5b610491848285610448565b509392505050565b600082601f8301126104ae576104ad610381565b5b81356104be848260208601610457565b91505092915050565b600080604083850312156104de576104dd610319565b5b60006104ec8582860161036c565b925050602083013567ffffffffffffffff81111561050d5761050c61031e565b5b61051985828601610499565b9150509250929050565b60006020828403121561053957610538610319565b5b60006105478482850161036c565b91505092915050565b61055981610343565b82525050565b600081519050919050565b600082825260208201905092915050565b60005b8381101561059957808201518184015260208101905061057e565b60008484015250505050565b60006105b08261055f565b6105ba818561056a565b93506105ca81856020860161057b565b6105d38161038b565b840191505092915050565b6000819050919050565b6105f1816105de565b82525050565b600060608201905061060c6000830186610550565b818103602083015261061e81856105a5565b905061062d60408301846105e8565b949350505050565b7f706c6179657220616c7265616479206578697374000000000000000000000000600082015250565b600061066b60148361056a565b915061067682610635565b602082019050919050565b6000602082019050818103600083015261069a8161065e565b9050919050565b7f4e487b7100000000000000000000000000000000000000000000000000000000600052602260045260246000fd5b600060028204905060018216806106e857607f821691505b6020821081036106fb576106fa6106a1565b5b50919050565b60008190508160005260206000209050919050565b60006020601f8301049050919050565b600082821b905092915050565b6000600883026107637fffffffffffffffffffffffffffffffffffffffffffffffffffffffffffffffff82610726565b61076d8683610726565b95508019841693508086168417925050509392505050565b6000819050919050565b60006107aa6107a56107a0846105de565b610785565b6105de565b9050919050565b6000819050919050565b6107c48361078f565b6107d86107d0826107b1565b848454610733565b825550505050565b600090565b6107ed6107e0565b6107f88184846107bb565b505050565b5b8181101561081c576108116000826107e5565b6001810190506107fe565b5050565b601f8211156108615761083281610701565b61083b84610716565b8101602085101561084a578190505b61085e61085685610716565b8301826107fd565b50505b505050565b600082821c905092915050565b600061088460001984600802610866565b1980831691505092915050565b600061089d8383610873565b9150826002028217905092915050565b6108b68261055f565b67ffffffffffffffff8111156108cf576108ce61039c565b5b6108d982546106d0565b6108e4828285610820565b600060209050601f8311600181146109175760008415610905578287015190505b61090f8582610891565b865550610977565b601f19841661092586610701565b60005b8281101561094d57848901518255600182019150602085019450602081019050610928565b8683101561096a5784890151610966601f891682610873565b8355505b6001600288020188555050505b50505050505056fea264697066735822122031263d33e23c3111b2b50e3b2d8702a8f2b6bf1bed31f7379a9e29980ffb664564736f6c63430008130033",
  "immutableReferences": {},
  "source": "// SPDX-License-Identifier: MIT\r\npragma solidity ^0.8.19;\r\n\r\ncontract User {\r\n\r\n        struct Player{\r\n            address plAddr;\r\n            string username;\r\n            uint score;\r\n        }\r\n\r\n        mapping(address=>Player) public players;\r\n\r\n\r\n        function createPlayer(address addr , string memory username) public {\r\n\r\n            require(players[addr].plAddr == address(0),\"player already exist\");\r\n\r\n            Player memory newPlayer = Player({\r\n                plAddr : addr ,\r\n                username: username,\r\n                score:0\r\n            });\r\n\r\n            players[addr] = newPlayer;\r\n\r\n        }\r\n\r\n\r\n}",
  "sourcePath": "C:\\Users\\Feras\\Desktop\\web3-demo-dapp\\contracts\\user.sol",
  "compiler": {
    "name": "solc",
    "version": "0.8.19+commit.7dd6d404.Emscripten.clang"
  },
  "schemaVersion": "3.4.16",
  "updatedAt": "2024-08-04T11:19:03.485Z",
  "networkType": "ethereum",
  "devdoc": {
    "kind": "dev",
    "methods": {},
    "version": 1
  },
  "userdoc": {
    "kind": "user",
    "methods": {},
    "version": 1
  }
}